{
  "contractName": "ReportContract",
  "abi": [
    {
      "inputs": [
        {
          "internalType": "address[]",
          "name": "_verifiedUsers",
          "type": "address[]"
        },
        {
          "internalType": "address[]",
          "name": "_selectedUsers",
          "type": "address[]"
        },
        {
          "internalType": "string[]",
          "name": "_reportLocation",
          "type": "string[]"
        },
        {
          "internalType": "string",
          "name": "_contentHash",
          "type": "string"
        }
      ],
      "payable": false,
      "stateMutability": "nonpayable",
      "type": "constructor"
    },
    {
      "anonymous": false,
      "inputs": [
        {
          "indexed": false,
          "internalType": "address",
          "name": "reportId",
          "type": "address"
        },
        {
          "indexed": false,
          "internalType": "string[]",
          "name": "location",
          "type": "string[]"
        },
        {
          "indexed": false,
          "internalType": "string",
          "name": "content",
          "type": "string"
        },
        {
          "indexed": false,
          "internalType": "int256",
          "name": "status",
          "type": "int256"
        },
        {
          "indexed": false,
          "internalType": "int256",
          "name": "confirmed",
          "type": "int256"
        }
      ],
      "name": "assignedReport",
      "type": "event"
    },
    {
      "anonymous": false,
      "inputs": [
        {
          "indexed": false,
          "internalType": "address",
          "name": "reportId",
          "type": "address"
        },
        {
          "indexed": false,
          "internalType": "int256",
          "name": "status",
          "type": "int256"
        }
      ],
      "name": "reportStatus",
      "type": "event"
    },
    {
      "constant": true,
      "inputs": [
        {
          "internalType": "uint256",
          "name": "",
          "type": "uint256"
        }
      ],
      "name": "examinedUsers",
      "outputs": [
        {
          "internalType": "address",
          "name": "",
          "type": "address"
        }
      ],
      "payable": false,
      "stateMutability": "view",
      "type": "function"
    },
    {
      "constant": true,
      "inputs": [
        {
          "internalType": "address",
          "name": "",
          "type": "address"
        }
      ],
      "name": "report",
      "outputs": [
        {
          "internalType": "address",
          "name": "reportId",
          "type": "address"
        },
        {
          "internalType": "string",
          "name": "content",
          "type": "string"
        },
        {
          "internalType": "int256",
          "name": "status",
          "type": "int256"
        },
        {
          "internalType": "int256",
          "name": "confirmed",
          "type": "int256"
        }
      ],
      "payable": false,
      "stateMutability": "view",
      "type": "function"
    },
    {
      "constant": true,
      "inputs": [
        {
          "internalType": "uint256",
          "name": "",
          "type": "uint256"
        }
      ],
      "name": "selectedUsers",
      "outputs": [
        {
          "internalType": "address",
          "name": "",
          "type": "address"
        }
      ],
      "payable": false,
      "stateMutability": "view",
      "type": "function"
    },
    {
      "constant": false,
      "inputs": [
        {
          "internalType": "address",
          "name": "_userAddress",
          "type": "address"
        }
      ],
      "name": "isSelectedUser",
      "outputs": [
        {
          "internalType": "address",
          "name": "",
          "type": "address"
        }
      ],
      "payable": false,
      "stateMutability": "nonpayable",
      "type": "function"
    },
    {
      "constant": false,
      "inputs": [
        {
          "internalType": "address",
          "name": "_userAddress",
          "type": "address"
        },
        {
          "internalType": "address",
          "name": "_reportAddress",
          "type": "address"
        }
      ],
      "name": "getContentSelectedUser",
      "outputs": [
        {
          "internalType": "address",
          "name": "",
          "type": "address"
        }
      ],
      "payable": false,
      "stateMutability": "nonpayable",
      "type": "function"
    },
    {
      "constant": false,
      "inputs": [
        {
          "internalType": "address",
          "name": "_userAddress",
          "type": "address"
        },
        {
          "internalType": "address",
          "name": "_reportAddress",
          "type": "address"
        },
        {
          "internalType": "string",
          "name": "_contentHash",
          "type": "string"
        }
      ],
      "name": "sendContentToReport",
      "outputs": [
        {
          "internalType": "bool",
          "name": "",
          "type": "bool"
        }
      ],
      "payable": false,
      "stateMutability": "nonpayable",
      "type": "function"
    },
    {
      "constant": false,
      "inputs": [
        {
          "internalType": "address",
          "name": "_reportAddress",
          "type": "address"
        },
        {
          "internalType": "address[]",
          "name": "_examinedAddress",
          "type": "address[]"
        }
      ],
      "name": "setExaminedUsers",
      "outputs": [
        {
          "internalType": "bool",
          "name": "",
          "type": "bool"
        }
      ],
      "payable": false,
      "stateMutability": "nonpayable",
      "type": "function"
    },
    {
      "constant": false,
      "inputs": [
        {
          "internalType": "address",
          "name": "_userAddress",
          "type": "address"
        }
      ],
      "name": "getContentExaminedUser",
      "outputs": [
        {
          "internalType": "address",
          "name": "",
          "type": "address"
        }
      ],
      "payable": false,
      "stateMutability": "nonpayable",
      "type": "function"
    },
    {
      "constant": false,
      "inputs": [
        {
          "internalType": "address",
          "name": "_userAddress",
          "type": "address"
        },
        {
          "internalType": "address",
          "name": "_reportAddress",
          "type": "address"
        }
      ],
      "name": "confirmReport",
      "outputs": [
        {
          "internalType": "bool",
          "name": "",
          "type": "bool"
        }
      ],
      "payable": false,
      "stateMutability": "nonpayable",
      "type": "function"
    },
    {
      "constant": false,
      "inputs": [
        {
          "internalType": "address",
          "name": "_userAddress",
          "type": "address"
        },
        {
          "internalType": "address",
          "name": "_reportAddress",
          "type": "address"
        }
      ],
      "name": "removeContract",
      "outputs": [
        {
          "internalType": "bool",
          "name": "",
          "type": "bool"
        }
      ],
      "payable": false,
      "stateMutability": "nonpayable",
      "type": "function"
    }
  ],
  "bytecode": "0x60806040523480156200001157600080fd5b50604051620026033803806200260383398181016040526200003791908101906200073e565b336000806101000a81548173ffffffffffffffffffffffffffffffffffffffff021916908373ffffffffffffffffffffffffffffffffffffffff16021790555083600190805190602001906200008f92919062000276565b508260029080519060200190620000a892919062000276565b5030600460003073ffffffffffffffffffffffffffffffffffffffff1673ffffffffffffffffffffffffffffffffffffffff16815260200190815260200160002060000160006101000a81548173ffffffffffffffffffffffffffffffffffffffff021916908373ffffffffffffffffffffffffffffffffffffffff16021790555081600460003073ffffffffffffffffffffffffffffffffffffffff1673ffffffffffffffffffffffffffffffffffffffff16815260200190815260200160002060010190805190602001906200018292919062000305565b5080600460003073ffffffffffffffffffffffffffffffffffffffff1673ffffffffffffffffffffffffffffffffffffffff1681526020019081526020016000206002019080519060200190620001db9291906200036c565b506000600460003073ffffffffffffffffffffffffffffffffffffffff1673ffffffffffffffffffffffffffffffffffffffff168152602001908152602001600020600301819055506000600460003073ffffffffffffffffffffffffffffffffffffffff1673ffffffffffffffffffffffffffffffffffffffff16815260200190815260200160002060040181905550505050506200096c565b828054828255906000526020600020908101928215620002f2579160200282015b82811115620002f15782518260006101000a81548173ffffffffffffffffffffffffffffffffffffffff021916908373ffffffffffffffffffffffffffffffffffffffff1602179055509160200191906001019062000297565b5b509050620003019190620003f3565b5090565b82805482825590600052602060002090810192821562000359579160200282015b82811115620003585782518290805190602001906200034792919062000439565b509160200191906001019062000326565b5b509050620003689190620004c0565b5090565b828054600181600116156101000203166002900490600052602060002090601f016020900481019282601f10620003af57805160ff1916838001178555620003e0565b82800160010185558215620003e0579182015b82811115620003df578251825591602001919060010190620003c2565b5b509050620003ef9190620004f1565b5090565b6200043691905b808211156200043257600081816101000a81549073ffffffffffffffffffffffffffffffffffffffff021916905550600101620003fa565b5090565b90565b828054600181600116156101000203166002900490600052602060002090601f016020900481019282601f106200047c57805160ff1916838001178555620004ad565b82800160010185558215620004ad579182015b82811115620004ac5782518255916020019190600101906200048f565b5b509050620004bc9190620004f1565b5090565b620004ee91905b80821115620004ea5760008181620004e0919062000519565b50600101620004c7565b5090565b90565b6200051691905b8082111562000512576000816000905550600101620004f8565b5090565b90565b50805460018160011615610100020316600290046000825580601f1062000541575062000562565b601f016020900490600052602060002090810190620005619190620004f1565b5b50565b600081519050620005768162000952565b92915050565b600082601f8301126200058e57600080fd5b8151620005a56200059f826200083c565b6200080e565b91508181835260208401935060208101905083856020840282011115620005cb57600080fd5b60005b83811015620005ff5781620005e4888262000565565b845260208401935060208301925050600181019050620005ce565b5050505092915050565b600082601f8301126200061b57600080fd5b8151620006326200062c8262000865565b6200080e565b9150818183526020840193506020810190508360005b838110156200067c578151860162000661888262000686565b84526020840193506020830192505060018101905062000648565b5050505092915050565b600082601f8301126200069857600080fd5b8151620006af620006a9826200088e565b6200080e565b91508082526020830160208301858383011115620006cc57600080fd5b620006d98382846200091c565b50505092915050565b600082601f830112620006f457600080fd5b81516200070b6200070582620008bb565b6200080e565b915080825260208301602083018583830111156200072857600080fd5b620007358382846200091c565b50505092915050565b600080600080608085870312156200075557600080fd5b600085015167ffffffffffffffff8111156200077057600080fd5b6200077e878288016200057c565b945050602085015167ffffffffffffffff8111156200079c57600080fd5b620007aa878288016200057c565b935050604085015167ffffffffffffffff811115620007c857600080fd5b620007d68782880162000609565b925050606085015167ffffffffffffffff811115620007f457600080fd5b6200080287828801620006e2565b91505092959194509250565b6000604051905081810181811067ffffffffffffffff821117156200083257600080fd5b8060405250919050565b600067ffffffffffffffff8211156200085457600080fd5b602082029050602081019050919050565b600067ffffffffffffffff8211156200087d57600080fd5b602082029050602081019050919050565b600067ffffffffffffffff821115620008a657600080fd5b601f19601f8301169050602081019050919050565b600067ffffffffffffffff821115620008d357600080fd5b601f19601f8301169050602081019050919050565b6000620008f582620008fc565b9050919050565b600073ffffffffffffffffffffffffffffffffffffffff82169050919050565b60005b838110156200093c5780820151818401526020810190506200091f565b838111156200094c576000848401525b50505050565b6200095d81620008e8565b81146200096957600080fd5b50565b611c87806200097c6000396000f3fe608060405234801561001057600080fd5b506004361061009e5760003560e01c8063a9bdd93011610066578063a9bdd93014610193578063b2a54523146101c3578063d083b7e4146101f3578063de0f725d14610223578063e053ea31146102535761009e565b8063170fe74c146100a357806353cd316a146100d35780635ca1d9a314610103578063923a3fb61461013357806392bc3ba914610163575b600080fd5b6100bd60048036036100b89190810190611758565b610286565b6040516100ca919061198d565b60405180910390f35b6100ed60048036036100e89190810190611704565b6102c2565b6040516100fa9190611a55565b60405180910390f35b61011d60048036036101189190810190611661565b6104d4565b60405161012a919061198d565b60405180910390f35b61014d60048036036101489190810190611638565b610718565b60405161015a919061198d565b60405180910390f35b61017d60048036036101789190810190611638565b6108f9565b60405161018a919061198d565b60405180910390f35b6101ad60048036036101a89190810190611661565b610ada565b6040516101ba9190611a55565b60405180910390f35b6101dd60048036036101d89190810190611758565b610db6565b6040516101ea919061198d565b60405180910390f35b61020d6004803603610208919081019061169d565b610df2565b60405161021a9190611a55565b60405180910390f35b61023d60048036036102389190810190611661565b6110e2565b60405161024a9190611a55565b60405180910390f35b61026d60048036036102689190810190611638565b6112dd565b60405161027d9493929190611a09565b60405180910390f35b6003818154811061029357fe5b906000526020600020016000915054906101000a900473ffffffffffffffffffffffffffffffffffffffff1681565b600081600390805190602001906102da9291906113c5565b506002600460008573ffffffffffffffffffffffffffffffffffffffff1673ffffffffffffffffffffffffffffffffffffffff168152602001908152602001600020600301819055507f5748d49f323a485e24038a2228611e01a5188e67071c3b7bbf819cc0699e6351600460008573ffffffffffffffffffffffffffffffffffffffff1673ffffffffffffffffffffffffffffffffffffffff16815260200190815260200160002060000160009054906101000a900473ffffffffffffffffffffffffffffffffffffffff16600460008673ffffffffffffffffffffffffffffffffffffffff1673ffffffffffffffffffffffffffffffffffffffff168152602001908152602001600020600101600460008773ffffffffffffffffffffffffffffffffffffffff1673ffffffffffffffffffffffffffffffffffffffff168152602001908152602001600020600201600460008873ffffffffffffffffffffffffffffffffffffffff1673ffffffffffffffffffffffffffffffffffffffff16815260200190815260200160002060030154600460008973ffffffffffffffffffffffffffffffffffffffff1673ffffffffffffffffffffffffffffffffffffffff168152602001908152602001600020600401546040516104c29594939291906119a8565b60405180910390a16001905092915050565b600080600280549050905060008090505b8181101561070d57600281815481106104fa57fe5b9060005260206000200160009054906101000a900473ffffffffffffffffffffffffffffffffffffffff1673ffffffffffffffffffffffffffffffffffffffff168573ffffffffffffffffffffffffffffffffffffffff161415610700577f5748d49f323a485e24038a2228611e01a5188e67071c3b7bbf819cc0699e6351600460008673ffffffffffffffffffffffffffffffffffffffff1673ffffffffffffffffffffffffffffffffffffffff16815260200190815260200160002060000160009054906101000a900473ffffffffffffffffffffffffffffffffffffffff16600460008773ffffffffffffffffffffffffffffffffffffffff1673ffffffffffffffffffffffffffffffffffffffff168152602001908152602001600020600101600460008873ffffffffffffffffffffffffffffffffffffffff1673ffffffffffffffffffffffffffffffffffffffff168152602001908152602001600020600201600460008973ffffffffffffffffffffffffffffffffffffffff1673ffffffffffffffffffffffffffffffffffffffff16815260200190815260200160002060030154600460008a73ffffffffffffffffffffffffffffffffffffffff1673ffffffffffffffffffffffffffffffffffffffff168152602001908152602001600020600401546040516106f79594939291906119a8565b60405180910390a15b80806001019150506104e5565b508391505092915050565b600080600280549050905060008090505b818110156108ef576002818154811061073e57fe5b9060005260206000200160009054906101000a900473ffffffffffffffffffffffffffffffffffffffff1673ffffffffffffffffffffffffffffffffffffffff168473ffffffffffffffffffffffffffffffffffffffff1614156108e2577f5748d49f323a485e24038a2228611e01a5188e67071c3b7bbf819cc0699e635130600460003073ffffffffffffffffffffffffffffffffffffffff1673ffffffffffffffffffffffffffffffffffffffff168152602001908152602001600020600101600460003073ffffffffffffffffffffffffffffffffffffffff1673ffffffffffffffffffffffffffffffffffffffff168152602001908152602001600020600201600460003073ffffffffffffffffffffffffffffffffffffffff1673ffffffffffffffffffffffffffffffffffffffff16815260200190815260200160002060030154600460003073ffffffffffffffffffffffffffffffffffffffff1673ffffffffffffffffffffffffffffffffffffffff168152602001908152602001600020600401546040516108d99594939291906119a8565b60405180910390a15b8080600101915050610729565b5082915050919050565b600080600380549050905060008090505b81811015610ad0576003818154811061091f57fe5b9060005260206000200160009054906101000a900473ffffffffffffffffffffffffffffffffffffffff1673ffffffffffffffffffffffffffffffffffffffff168473ffffffffffffffffffffffffffffffffffffffff161415610ac3577f5748d49f323a485e24038a2228611e01a5188e67071c3b7bbf819cc0699e635130600460003073ffffffffffffffffffffffffffffffffffffffff1673ffffffffffffffffffffffffffffffffffffffff168152602001908152602001600020600101600460003073ffffffffffffffffffffffffffffffffffffffff1673ffffffffffffffffffffffffffffffffffffffff168152602001908152602001600020600201600460003073ffffffffffffffffffffffffffffffffffffffff1673ffffffffffffffffffffffffffffffffffffffff16815260200190815260200160002060030154600460003073ffffffffffffffffffffffffffffffffffffffff1673ffffffffffffffffffffffffffffffffffffffff16815260200190815260200160002060040154604051610aba9594939291906119a8565b60405180910390a15b808060010191505061090a565b5082915050919050565b600080600380549050905060008090505b81811015610da95760038181548110610b0057fe5b9060005260206000200160009054906101000a900473ffffffffffffffffffffffffffffffffffffffff1673ffffffffffffffffffffffffffffffffffffffff168573ffffffffffffffffffffffffffffffffffffffff161415610d9c576001600460008673ffffffffffffffffffffffffffffffffffffffff1673ffffffffffffffffffffffffffffffffffffffff1681526020019081526020016000206004015401600460008673ffffffffffffffffffffffffffffffffffffffff1673ffffffffffffffffffffffffffffffffffffffff168152602001908152602001600020600401819055507f5748d49f323a485e24038a2228611e01a5188e67071c3b7bbf819cc0699e6351600460008673ffffffffffffffffffffffffffffffffffffffff1673ffffffffffffffffffffffffffffffffffffffff16815260200190815260200160002060000160009054906101000a900473ffffffffffffffffffffffffffffffffffffffff16600460008773ffffffffffffffffffffffffffffffffffffffff1673ffffffffffffffffffffffffffffffffffffffff168152602001908152602001600020600101600460008873ffffffffffffffffffffffffffffffffffffffff1673ffffffffffffffffffffffffffffffffffffffff168152602001908152602001600020600201600460008973ffffffffffffffffffffffffffffffffffffffff1673ffffffffffffffffffffffffffffffffffffffff16815260200190815260200160002060030154600460008a73ffffffffffffffffffffffffffffffffffffffff1673ffffffffffffffffffffffffffffffffffffffff16815260200190815260200160002060040154604051610d899594939291906119a8565b60405180910390a1600092505050610db0565b8080600101915050610aeb565b5060019150505b92915050565b60028181548110610dc357fe5b906000526020600020016000915054906101000a900473ffffffffffffffffffffffffffffffffffffffff1681565b600080600280549050905060008090505b818110156110d45760028181548110610e1857fe5b9060005260206000200160009054906101000a900473ffffffffffffffffffffffffffffffffffffffff1673ffffffffffffffffffffffffffffffffffffffff168673ffffffffffffffffffffffffffffffffffffffff1614156110c75783600460008773ffffffffffffffffffffffffffffffffffffffff1673ffffffffffffffffffffffffffffffffffffffff1681526020019081526020016000206002019080519060200190610ecc92919061144f565b506001600460008773ffffffffffffffffffffffffffffffffffffffff1673ffffffffffffffffffffffffffffffffffffffff168152602001908152602001600020600301819055507f5748d49f323a485e24038a2228611e01a5188e67071c3b7bbf819cc0699e6351600460008773ffffffffffffffffffffffffffffffffffffffff1673ffffffffffffffffffffffffffffffffffffffff16815260200190815260200160002060000160009054906101000a900473ffffffffffffffffffffffffffffffffffffffff16600460008873ffffffffffffffffffffffffffffffffffffffff1673ffffffffffffffffffffffffffffffffffffffff168152602001908152602001600020600101600460008973ffffffffffffffffffffffffffffffffffffffff1673ffffffffffffffffffffffffffffffffffffffff168152602001908152602001600020600201600460008a73ffffffffffffffffffffffffffffffffffffffff1673ffffffffffffffffffffffffffffffffffffffff16815260200190815260200160002060030154600460008b73ffffffffffffffffffffffffffffffffffffffff1673ffffffffffffffffffffffffffffffffffffffff168152602001908152602001600020600401546040516110b49594939291906119a8565b60405180910390a16000925050506110db565b8080600101915050610e03565b5060019150505b9392505050565b60006003600460008473ffffffffffffffffffffffffffffffffffffffff1673ffffffffffffffffffffffffffffffffffffffff168152602001908152602001600020600301819055507f5748d49f323a485e24038a2228611e01a5188e67071c3b7bbf819cc0699e6351600460008473ffffffffffffffffffffffffffffffffffffffff1673ffffffffffffffffffffffffffffffffffffffff16815260200190815260200160002060000160009054906101000a900473ffffffffffffffffffffffffffffffffffffffff16600460008573ffffffffffffffffffffffffffffffffffffffff1673ffffffffffffffffffffffffffffffffffffffff168152602001908152602001600020600101600460008673ffffffffffffffffffffffffffffffffffffffff1673ffffffffffffffffffffffffffffffffffffffff168152602001908152602001600020600201600460008773ffffffffffffffffffffffffffffffffffffffff1673ffffffffffffffffffffffffffffffffffffffff16815260200190815260200160002060030154600460008873ffffffffffffffffffffffffffffffffffffffff1673ffffffffffffffffffffffffffffffffffffffff168152602001908152602001600020600401546040516112cb9594939291906119a8565b60405180910390a16001905092915050565b60046020528060005260406000206000915090508060000160009054906101000a900473ffffffffffffffffffffffffffffffffffffffff1690806002018054600181600116156101000203166002900480601f0160208091040260200160405190810160405280929190818152602001828054600181600116156101000203166002900480156113af5780601f10611384576101008083540402835291602001916113af565b820191906000526020600020905b81548152906001019060200180831161139257829003601f168201915b5050505050908060030154908060040154905084565b82805482825590600052602060002090810192821561143e579160200282015b8281111561143d5782518260006101000a81548173ffffffffffffffffffffffffffffffffffffffff021916908373ffffffffffffffffffffffffffffffffffffffff160217905550916020019190600101906113e5565b5b50905061144b91906114cf565b5090565b828054600181600116156101000203166002900490600052602060002090601f016020900481019282601f1061149057805160ff19168380011785556114be565b828001600101855582156114be579182015b828111156114bd5782518255916020019190600101906114a2565b5b5090506114cb9190611512565b5090565b61150f91905b8082111561150b57600081816101000a81549073ffffffffffffffffffffffffffffffffffffffff0219169055506001016114d5565b5090565b90565b61153491905b80821115611530576000816000905550600101611518565b5090565b90565b60008135905061154681611c16565b92915050565b600082601f83011261155d57600080fd5b813561157061156b82611a9d565b611a70565b9150818183526020840193506020810190508385602084028201111561159557600080fd5b60005b838110156115c557816115ab8882611537565b845260208401935060208301925050600181019050611598565b5050505092915050565b600082601f8301126115e057600080fd5b81356115f36115ee82611ac5565b611a70565b9150808252602083016020830185838301111561160f57600080fd5b61161a838284611bc3565b50505092915050565b60008135905061163281611c2d565b92915050565b60006020828403121561164a57600080fd5b600061165884828501611537565b91505092915050565b6000806040838503121561167457600080fd5b600061168285828601611537565b925050602061169385828601611537565b9150509250929050565b6000806000606084860312156116b257600080fd5b60006116c086828701611537565b93505060206116d186828701611537565b925050604084013567ffffffffffffffff8111156116ee57600080fd5b6116fa868287016115cf565b9150509250925092565b6000806040838503121561171757600080fd5b600061172585828601611537565b925050602083013567ffffffffffffffff81111561174257600080fd5b61174e8582860161154c565b9150509250929050565b60006020828403121561176a57600080fd5b600061177884828501611623565b91505092915050565b600061178d838361186f565b905092915050565b61179e81611b71565b82525050565b60006117af82611b1b565b6117b98185611b3e565b9350836020820285016117cb85611af1565b8060005b85811015611806578484038952816117e78582611781565b94506117f283611b31565b925060208a019950506001810190506117cf565b50829750879550505050505092915050565b61182181611b83565b82525050565b61183081611b8f565b82525050565b600061184182611b26565b61184b8185611b60565b935061185b818560208601611bd2565b61186481611c05565b840191505092915050565b60008154600181166000811461188c57600181146118b2576118f6565b607f600283041661189d8187611b4f565b955060ff1983168652602086019350506118f6565b600282046118c08187611b4f565b95506118cb85611b06565b60005b828110156118ed578154818901526001820191506020810190506118ce565b80880195505050505b505092915050565b60008154600181166000811461191b576001811461194157611985565b607f600283041661192c8187611b60565b955060ff198316865260208601935050611985565b6002820461194f8187611b60565b955061195a85611b06565b60005b8281101561197c5781548189015260018201915060208101905061195d565b80880195505050505b505092915050565b60006020820190506119a26000830184611795565b92915050565b600060a0820190506119bd6000830188611795565b81810360208301526119cf81876117a4565b905081810360408301526119e381866118fe565b90506119f26060830185611827565b6119ff6080830184611827565b9695505050505050565b6000608082019050611a1e6000830187611795565b8181036020830152611a308186611836565b9050611a3f6040830185611827565b611a4c6060830184611827565b95945050505050565b6000602082019050611a6a6000830184611818565b92915050565b6000604051905081810181811067ffffffffffffffff82111715611a9357600080fd5b8060405250919050565b600067ffffffffffffffff821115611ab457600080fd5b602082029050602081019050919050565b600067ffffffffffffffff821115611adc57600080fd5b601f19601f8301169050602081019050919050565b60008190508160005260206000209050919050565b60008190508160005260206000209050919050565b600081549050919050565b600081519050919050565b6000600182019050919050565b600082825260208201905092915050565b600082825260208201905092915050565b600082825260208201905092915050565b6000611b7c82611b99565b9050919050565b60008115159050919050565b6000819050919050565b600073ffffffffffffffffffffffffffffffffffffffff82169050919050565b6000819050919050565b82818337600083830152505050565b60005b83811015611bf0578082015181840152602081019050611bd5565b83811115611bff576000848401525b50505050565b6000601f19601f8301169050919050565b611c1f81611b71565b8114611c2a57600080fd5b50565b611c3681611bb9565b8114611c4157600080fd5b5056fea365627a7a7231582074292e8d6d5fc979ea0734e9157bef557e4d6d7cf75aea80795913acfcdaf5366c6578706572696d656e74616cf564736f6c63430005100040",
  "source": "// SPDX-License-Identifier: MIT\npragma solidity >=0.4.25 <0.9.0;\npragma experimental ABIEncoderV2;\n\n\nimport \"./Utils.sol\";\n\n// This is just a simple example of a coin-like contract.\n// It is not standards compatible and cannot be expected to talk to other\n// coin/token contracts. If you want to create a standards-compliant\n// token, see: https://github.com/ConsenSys/Tokens. Cheers!\n\ncontract ReportContract{\n\n    using Utils for *;\n\n    address private owner;\n\n    address[] private verifiedUsers;\n    address[] public selectedUsers;\n    address[] public examinedUsers;\n\n    struct ReportProfile {\n        address reportId;\n        string[] location;\n        string content;\n        int status;\n        int confirmed;\n    }\n\n\n    mapping(address => ReportProfile) public report;\n\n\n    modifier isOwner() {\n        require(msg.sender == owner, 'The address is not owner !!');\n        _;\n    }\n\n\n//    modifier isSelectedUser() {\n//        require(msg.sender == owner, 'The address is not owner !!');\n//        _;\n//    }\n\n    event reportStatus(\n        address reportId,\n        int status\n    );\n\n    event assignedReport(\n        address reportId,\n        string[] location,\n        string content,\n        int status,\n        int confirmed\n    );\n\n    // set information to report\n\n    constructor(address[] memory _verifiedUsers, address[] memory _selectedUsers, string[] memory _reportLocation, string memory _contentHash) public {\n\n        owner= msg.sender;\n        verifiedUsers = _verifiedUsers;\n        selectedUsers = _selectedUsers;\n        report[address(this)].reportId = address(this);\n        report[address(this)].location = _reportLocation;\n        report[address(this)].content = _contentHash;\n        report[address(this)].status = 0;\n        report[address(this)].confirmed = 0;\n    }\n\n    // get selectedUsers boolean with senderAddress\n\n    function isSelectedUser(address _userAddress) public returns (address) {\n\n        uint selectUsersArrayLength = selectedUsers.length;\n\n        for (uint i = 0; i < selectUsersArrayLength; i++) {\n\n            if(_userAddress == selectedUsers[i]){\n\n                emit assignedReport(address(this), report[address(this)].location, report[address(this)].content, report[address(this)].status, report[address(this)].confirmed);\n            }\n        }\n        return _userAddress;\n    }\n\n    // get content of the report\n\n    function getContentSelectedUser(address _userAddress, address _reportAddress) public returns (address) {\n\n        uint selectUsersArrayLength = selectedUsers.length;\n\n        for (uint i = 0; i < selectUsersArrayLength; i++) {\n\n            if(_userAddress == selectedUsers[i]){\n\n                emit assignedReport(report[_reportAddress].reportId, report[_reportAddress].location, report[_reportAddress].content, report[_reportAddress].status, report[_reportAddress].confirmed);\n            }\n        }\n        return _userAddress;\n    }\n\n    // send content to report\n\n    function sendContentToReport(address _userAddress, address _reportAddress, string memory _contentHash) public returns (bool){\n\n        uint selectUsersArrayLength = selectedUsers.length;\n\n        for (uint i = 0; i < selectUsersArrayLength; i++) {\n\n                if(_userAddress == selectedUsers[i]){\n\n                    report[_reportAddress].content = _contentHash;\n                    report[_reportAddress].status = 1;\n                    emit assignedReport(report[_reportAddress].reportId, report[_reportAddress].location, report[_reportAddress].content, report[_reportAddress].status, report[_reportAddress].confirmed);\n\n                    return false;\n                }\n        }\n\n        return true;\n\n    }\n\n\n    // set examinedUsers\n\n    function setExaminedUsers(address _reportAddress, address[] memory _examinedAddress) public returns(bool){\n\n        examinedUsers = _examinedAddress;\n        report[_reportAddress].status = 2;\n\n        emit assignedReport(report[_reportAddress].reportId, report[_reportAddress].location, report[_reportAddress].content, report[_reportAddress].status, report[_reportAddress].confirmed);\n\n        return true;\n    }\n\n\n    // get content from report\n\n    function getContentExaminedUser(address _userAddress) public returns (address) {\n\n        uint examinedUsersArrayLength = examinedUsers.length;\n\n        for (uint i = 0; i < examinedUsersArrayLength; i++) {\n\n            if(_userAddress == examinedUsers[i]){\n\n                emit assignedReport(address(this), report[address(this)].location, report[address(this)].content, report[address(this)].status, report[address(this)].confirmed);\n            }\n        }\n        return _userAddress;\n    }\n\n\n    // confirm or reject the reports from examinedUsers\n\n    function confirmReport(address _userAddress, address _reportAddress) public returns (bool){\n\n        uint examinedUsersArrayLength = examinedUsers.length;\n\n        for (uint i = 0; i < examinedUsersArrayLength; i++) {\n\n            if(_userAddress == examinedUsers[i]){\n\n                report[_reportAddress].confirmed = report[_reportAddress].confirmed + 1;\n                emit assignedReport(report[_reportAddress].reportId, report[_reportAddress].location, report[_reportAddress].content, report[_reportAddress].status, report[_reportAddress].confirmed);\n\n                return false;\n            }\n        }\n\n        return true;\n\n    }\n\n\n    // finish the contract\n\n\n    function removeContract(address _userAddress, address _reportAddress) public returns (bool){\n\n        report[_reportAddress].status = 3;\n\n        emit assignedReport(report[_reportAddress].reportId, report[_reportAddress].location, report[_reportAddress].content, report[_reportAddress].status, report[_reportAddress].confirmed);\n\n        return true;\n    }\n\n}\n",
  "sourcePath": "F:/Thesis/5-Application/Project/scDapps_truffle/contracts/ReportContract.sol",
  "compiler": {
    "name": "solc",
    "version": "0.5.16+commit.9c3226ce.Emscripten.clang"
  },
  "schemaVersion": "3.4.1",
  "updatedAt": "2021-05-19T07:01:25.588Z",
  "networkType": "ethereum",
  "devdoc": {
    "methods": {}
  },
  "userdoc": {
    "methods": {}
  }
}